:020000040000FA
:10000000D0330020150200001D0200001F02000076
:100010002102000023020000250200000000000071
:1000200000000000000000000000000027020000A7
:1000300029020000000000002B0200002D02000039
:100040002F0200002F020000F1100000910A0000B2
:100050002F0200002F020000910300002F02000079
:100060002F0200002F0200002F0200002F020000CC
:100070002F0200002F0200002F0200002F020000BC
:100080002F0200002F0200002F0200002F020000AC
:100090002F0200002F0200002F0200002F0200009C
:1000A0002F0200002F0200002F0200002F0200008C
:1000B0002F0200002F0200000000000000000000DE
:1000C0002F0200002F0200002F0200002F0200006C
:1000D0002F0200002F0200002F0200002F0200005C
:1000E0002F0200002F0200002F020000000000007D
:1000F000000000002F020000000000002F0200009E
:1001000000000000000000000000000000000000EF
:1001100000000000000000000000000000000000DF
:1001200000000000000000000000000000000000CF
:1001300000000000000000000000000000000000BF
:1001400000000000000000000000000000000000AF
:10015000000000000000000000000000000000009F
:10016000000000000000000000000000000000008F
:10017000000000000000000000000000000000007F
:10018000000000000000000000000000000000006F
:10019000000000000000000000000000000000005F
:1001A000000000000000000000000000000000004F
:1001B000000000000000000000000000000000003F
:1001C000000000000000000000000000000000002F
:1001D000000000000000000000000000000000001F
:1001E000000000000000000000000000000000000F
:1001F00000000000000000000000000000000000FF
:10020000DFF80CD000F03CF800480047791F0000F0
:10021000D03300200648804706480047FEE7FEE747
:10022000FEE7FEE7FEE7FEE7FEE7FEE7FEE7FEE7A6
:10023000110D00000102000040EA01039B0703D0FA
:1002400009E008C9121F08C0042AFAD203E011F815
:10025000013B00F8013B521EF9D2704730B505460C
:100260002A460B4612F8010B13F8014B08B1A042C5
:10027000F8D01CB1002802D06D1CF1E7284630BD33
:10028000064C074D06E0E06840F0010394E80700E3
:1002900098471034AC42F6D3FFF7B6FF3C3B000062
:1002A0005C3B0000002004E00021054A1154411C81
:1002B000C8B23228F8DB0021024A117070470000F2
:1002C0007C1000203100002038B530480078401CF8
:1002D000C0B28DF800002D484078401CC0B28DF8A7
:1002E00001002A488078401CC0B28DF802002748DF
:1002F000C078401CC0B28DF803006A460C21002073
:1003000001F058F801220021084601F021F80122ED
:100310001146002001F01CF8052001F059FE0321D0
:10032000002000F0FFFA132806D01022012100203F
:1003300001F00EF8002038BD04220121002001F058
:1003400007F800BF00240221002000F0EBFA044669
:1003500024B1E2B20221002000F0FAFF052001F0F2
:1003600037FE04F00800082801D10020E3E7062149
:10037000002000F0D7FAFF2806D01022012100202B
:1003800000F0E6FFFF20D6E7DCE700001B000020BE
:100390002DE9F04F8DB0002700200B900C904FF40A
:1003A00080700A900126002412E00A9802F07EF97B
:1003B00040B100BF7E480068304018B10A9802F092
:1003C00067F9374376000A98001D80B20A90641CD2
:1003D000082CEAD34FF4BE7002F068F950B14FF424
:1003E000BE7002F055F947F000470BAA0221002029
:1003F00002F032F9F8B200B3012600241BE006EA4D
:100400000700B0B100BF6B4850F82400C0F30520CE
:10041000804600BF674850F82400C0F30140814681
:10042000204601F06BFA054615B149464046A847FB
:1004300000BF7600641C082CE1D307F000400028C0
:100440007DD04FF0000B002008900990002505E0BA
:100450004FF0FF3006A941F825006D1C022DF7D39F
:1004600000BF4FF0000B002463E05348005D05908F
:10047000059820F0C00004904F480057401C002809
:1004800056D006A9049801F08DFD002850D005989B
:100490004FEA9019049801F079FA804601F02EFA9B
:1004A0000390039810B9B9F1030F40D1B9F1030FCC
:1004B00003D108A9049801F080FD0498029002A8D5
:1004C00002F020F80190019800F5E060029950F8E0
:1004D0002100C0F3014800BF0BA9049801F062FDA0
:1004E0008246BAF1000F02D0B8F1020F05D0BAF17E
:1004F000000F1BD1B8F1030F18D1B9F1030F0FD1C1
:10050000B8F1020F01D1032000E00220029002990D
:10051000049801F053FF0BF1010000F0FF0B00BF46
:10052000039818B14946DDE90320904700BF00BF9A
:10053000641C002C99D0BBF1000F31D000E034E0F6
:100540004FF0010804AA0221002002F085F80025DE
:100550000BE004A850F825000BA951F8251088429B
:1005600002D04FF0000802E06D1C022DF1D300BF55
:10057000B8F1000F02D04FF0000B10E000250CE0A6
:1005800004A850F825000BA941F8250008A850F848
:10059000250006A941F825006D1C022DF0D300BFEF
:1005A000BBF1000F7FF45DAF00BF0DB0BDE8F08F71
:1005B0000463004010650040A413002010B50446F9
:1005C00021460448FFF74AFE08B1012010BD002073
:1005D000FCE700007C100020C0201D490870A82006
:1005E000487001208870C870FF201A490870487050
:1005F00088700020C8700C201749087029204870A6
:10060000AB2088707C20C8700020087101204871E0
:10061000C02012490870A820487001208870652009
:10062000C87013200E49087088204870C0200D49FA
:100630000870A8204870012088707720C8701720A3
:1006400009490870702048700120084908707047F7
:100650000D00002011000020150000201B000020CC
:100660001F00002021000020250000202D00002078
:100670002DE9F84F80460F462621404600F090F9BC
:10068000054615B90020BDE8F88F40F2B450854208
:1006900000DD05462821404600F082F90646B146B5
:1006A000C6F30A063046F11706EB116109127D4ABE
:1006B000117011464E70182000EB48108870002011
:1006C00079490870162001F096FE00BF0320774B91
:1006D000024674490090764801F0EEFC8246BAF179
:1006E000000F04D000BF504600F0FEFE00BF00BF68
:1006F00000BF6D4800780028FBD06C4890F802B02D
:100700007019B0F5006F2EDA002404E0002065496E
:100710000855601C84B2AC42F8DB002062490870C6
:1007200000BFE8B2EAB2614B5E490090604801F058
:10073000C3FC8246BAF1000F04D000BF504600F05F
:10074000D3FE00BF00BF00BF574800780028FBD091
:10075000002405E05548005D38707F1C601C84B2A1
:10076000AC42F7DB8AE0C6F5006086B2002404E004
:1007700000204C490855601C84B2B442F8DB0020CC
:100780004949087000BFF0B2F2B2484B45490090A9
:10079000474801F091FC8246BAF1000F04D000BF37
:1007A000504600F0A1FE00BF00BF00BF3E480078E9
:1007B0000028FBD0002405E03C48005D38707F1C19
:1007C000601C84B2B442F7DB162001F0C8FE0020A2
:1007D000344908704870182000EB481088700020D9
:1007E00031490870162001F006FE00BF03202F4B90
:1007F00002462C4900902E4801F05EFC8246BAF178
:10080000000F04D000BF504600F06EFE00BF00BFD6
:1008100000BF254800780028FBD0244890F802B09B
:10082000002404E000201F490855601C84B2AC423B
:10083000F8DB00201C49087000BFE8B2EAB21B4B8D
:10084000184900901A4801F037FC8246BAF1000FAF
:1008500004D000BF504600F047FE00BF00BF00BFFD
:10086000114800780028FBD0002405E00F48005D07
:1008700038707F1C601C84B2AC42F7DB162001F09C
:100880006EFE09EB05001FFA80F94A462821404612
:1008900000F077FD40220121404600F059FD284636
:1008A000F1E6000001000020000000200700002009
:1008B000E039000038B504462046E11704EB116129
:1008C000090A144A117011464C70012088700020EA
:1008D000C87011490870162001F08DFD00BF04207A
:1008E0000E4B02460B4900900D4801F0E5FB054612
:1008F00025B100BF284600F0F7FD00BF00BF00BFD4
:10090000054800780028FBD0162001F028FE034897
:10091000C07838BD01000020000000200700002042
:10092000E0390000F8B505460C462046E11704EB17
:100930001161090A164A117011464C70082000EB2B
:100940004510C0B240F0010088700020C870114905
:100950000870162001F04FFD00BF04200E4B024628
:100960000B4900900D4801F0A7FB064626B100BFD9
:10097000304600F0B9FD00BF00BF00BF0548007859
:100980000028FBD0162001F0EAFD0348C078F8BD2E
:10099000010000200000002007000020E0390000D6
:1009A000F8B505460C462046E11704EB1161090A2B
:1009B000194A117011464C70082000EB4510C0B266
:1009C00040F0020088700020C87008711349087058
:1009D000162001F010FD00BF0520114B02460E4904
:1009E0000090104801F068FB074627B100BF384669
:1009F00000F07AFD00BF00BF00BF08480078002863
:100A0000FBD0162001F0ABFD05480179C07801EB61
:100A1000002086B23046F8BD010000200000002012
:100A200007000020E039000038B504460D48047086
:100A300000200D49087000BF0C4B012209490090AD
:100A40000B4801F039FB054625B100BF284600F0F0
:100A50004BFD00BF00BF00BF034800780028FBD05B
:100A600038BD000001000020000000200700002029
:100A7000E039000070B504462546E11704EB11612A
:100A8000C1F30720FFF7D0FFE0B2FFF7CDFF70BD45
:100A900010B50249024801F05DFA10BDAC13002008
:100AA000003000402DE9F04F87B01625012637466B
:100AB0004FF00008C146C246019501A801F0C2FCF2
:100AC000834646EA470040EA880040EA092040EAB7
:100AD0000A410BF5E060019A40F8221000BF00BF08
:100AE000162001F03CFD2A4B0FCB03AC0FC4FF20B6
:100AF0008DF80F0014208DF80E0015208DF80D00D4
:100B000017208DF80C0000BF0023224A03A92248B9
:100B100001F08EFA054625B100BF284600F0E4FC3E
:100B200000BF00BF112001F066FC162001F017FD88
:100B3000172001F060FC152001F05DFC01F020FFA2
:100B4000044600BF254625B100BF284600F0CCFC76
:100B500000BF00BF0E4810300068029003208DF8DF
:100B600009000E4A02A9132001F08EFE044600BFC0
:100B7000254625B100BF284600F0B6FC00BF00BFE7
:100B80000121132001F02AFE07B0BDE8F08F00001C
:100B9000F83900003D330000E0390000B91D0000C5
:100BA00010B5044601220021204600F0D1FB0122AD
:100BB0001146204600F0CCFB052001F009FA032184
:100BC0002046FFF7AFFE132806D010220121204651
:100BD00000F0BEFB002010BD04220121204600F0E1
:100BE000B7FBFF20F7E7000010B5044640F2B4520F
:100BF0001221002000F0C5FB082C26D2DFE804F00B
:100C0000041E1F202122232411484178007801EB83
:100C1000002082B20421002000F0B3FB0D4841788F
:100C2000007801EB002082B21021002000F0A9FB27
:100C3000094A0C21002000F0BDFB07E006E005E0BA
:100C400004E003E002E001E000E000BF00BF10BDEF
:100C50001F000020250000202100002010B50446C0
:100C600001220021204600F073FB0122114620469C
:100C700000F06EFB052001F0ABF903212046FFF7E1
:100C800051FE132806D010220121204600F060FBFF
:100C9000002010BD02220121204600F059FB052052
:100CA00001F096F903212046FFF73CFE142806D0F8
:100CB00010220121204600F04BFB0020E9E7FF2035
:100CC000E7E710B5044602220021204600F040FB71
:100CD00001221146204600F03BFB052001F078F987
:100CE00003212046FFF71EFE222806D010220121F4
:100CF000204600F02DFB002010BDFF20FCE7000087
:100D000001480249086070470090D0037800002035
:100D100010B500F087FE40B10020794908604FF01F
:100D20008041C1F810017749086000F097FE002863
:100D300055D075480068754908607348001D006803
:100D4000091D0860704808300068091D08606E4879
:100D50000C300068091D08606B4810300068091DE0
:100D60000860694814300068091D0860664818303A
:100D7000006866492031086063481C300068091D1E
:100D80000860614820300068091D08605E48243012
:100D90000068091D08605C4828300068091D08606B
:100DA00059482C300068091D0860574830300068E9
:100DB000564940310860544834300068091D0860C5
:100DC000514838300068091D08604F483C300068C1
:100DD000091D08604C4840300068091D086000F09B
:100DE00059FE10B14A484B49086000F0D5FD10B1DA
:100DF000FB204949086000F0DDFD38B14748017823
:100E00004748006861F303004549086000F0E0FDD1
:100E100018B14FF400704349086000F0E7FD40B19D
:100E20004148006800F0010018B16FF001003E4930
:100E300008603E48006840F470003C49086000BF0C
:100E400000BF00BFBFF34F8F00BF00BF00BF00BF98
:100E500000BF00BFBFF36F8F00BF00BF00BF3448AB
:100E6000006800F0004030B93148001D006800F013
:100E70000040002840D001202E49086000BF2E48C5
:100E800000680028FBD012202949086000BF2A48CA
:100E900000680028FBD012212548001D016000BF1A
:100EA000254800680028FBD000202249086000BFC8
:100EB000214800680028FBD000BF00BF00BF00BF72
:100EC00000BFBFF34F8F00BF00BF00BF17487C3883
:100ED000006800F4E06019490843001D13497C399B
:100EE000086000BF00BF00BFBFF34F8F00BF00BF4F
:100EF00000BF00BF00BFFDE7FFF702FF10BD00000D
:100F00000C010040380500400404001020C50040DA
:100F1000488103008C56004018F50040580200102C
:100F2000E40E0040409602400004004088ED00E0DE
:100F30000012001004E5014000E401400000FA0541
:100F400010B50D2001F0F8F90E2001F0F5F910BDF3
:100F500070B50446002596E004F0800000284BD0D0
:100F60000D2001F055FA0E2001F052FA00BF00BF2B
:100F700000BF00BF00BF00BF00BF00BF00BF00BF79
:100F800000BF00BF00BF00BF00BF00BF00BF00BF69
:100F900000BF00BF00BF00BF00BF00BF00BF00BF59
:100FA00000BF00BF00BF00BF00BF00BF00BF00BF49
:100FB00000BF00BF0D2001F0DFFA0E2001F0DCFAC7
:100FC00000BF00BF00BF00BF00BF00BF00BF00BF29
:100FD00000BF00BF00BF00BF00BF00BF00BF00BF19
:100FE00000BF00BF00BF00BF00BF00BF00BF00BF09
:100FF00000BF00BF00BF43E00D2001F009FA0E2042
:1010000001F006FA00BF00BF00BF00BF00BF00BF75
:1010100000BF00BF0D2001F0AFFA0E2001F0ACFAC6
:1010200000BF00BF00BF00BF00BF00BF00BF00BFC8
:1010300000BF00BF00BF00BF00BF00BF00BF00BFB8
:1010400000BF00BF00BF00BF00BF00BF00BF00BFA8
:1010500000BF00BF00BF00BF00BF00BF00BF00BF98
:1010600000BF00BF00BF00BF00BF00BF00BF00BF88
:1010700000BF00BF00BF00BF00BF00BF00BF00BF78
:101080006006040E6D1C082DFFF666AF70BD0000F3
:1010900070B5FF20FFF75CFFFF20FFF759FFFF202F
:1010A000FFF756FF0020FFF753FF0020FFF750FF28
:1010B0000020FFF74DFF054C002504E014F8010B5C
:1010C000FFF746FF6D1C0F2DF8DB70BDAE12002040
:1010D00070B504465D1E05EB4505044EA81900F8E1
:1010E000014B00F8011B00F8012B70BDAE1200206F
:1010F00010B502490868804710BD0000700000204C
:1011000010B5112001F077F9322000F061FF1120B5
:1011100001F025FAC82000F05BFF00BF2E20FFF78A
:10112000C9FB00F001000028F8D010BD10B5002464
:101130008021002000F0E6F80A2000F049FF042298
:101140001C49012000F05CF904221B49052000F035
:1011500057F906221949092000F052F904221849CA
:101160000F2000F04DF900BF0BE0E0B202221E217B
:1011700000F0EEF8E0B202221F2100F0E9F8601C56
:1011800084B2082CF1DB4FF4FA61192000F0CDF89D
:1011900008211B2000F0B6F8C021162000F0B2F89C
:1011A0000121182000F0AEF81F222C21002000F0B1
:1011B000CFF810BD0D000020110000201500002008
:1011C0001B00002010B5FFF7B1FFFFF77DF80020EE
:1011D000FFF70AFD10BD000070B500BF00202B49CD
:1011E00008701520FFF766FB054605F0F001152095
:1011F00000F088F81720FFF75DFB054605F00100B9
:1012000000283DD002210020FFF78CFB0446224637
:101210000221002000F09CF804F0010028B11C48D5
:10122000007840F002001A49087004F0020050B142
:1012300010220121002000F08BF80020FFF7D4FCE1
:1012400000201349087004F0100028B111480078FC
:1012500040F002000F49087004F0040028B10D4866
:10126000007840F001000B49087004F0080038B124
:1012700010220121002000F06BF8002004490870C2
:101280001720FFF717FB00B1A8E770BD3000002062
:101290002E0000202F00002010B518480078F8B963
:1012A0001748007860B90020FFF7D8FCFF2803D169
:1012B00001201249087020E00020104908701CE04D
:1012C0000F48007801280CD10020FFF769FCFF28A7
:1012D00003D10120094908700FE000200749087078
:1012E0000BE00020FFF7EDFCFF2803D103200349AA
:1012F000087002E000200149087010BD2E00002097
:101300002D00002070B505460C46162001F073F83C
:101310002846FFF7AFFB0520FFF786FB2046FFF7C7
:1013200083FB162001F01BF970BD70B505460C4615
:10133000162001F060F82846FFF79CFB0620FFF717
:1013400073FB2046FFF796FB162001F008F970BDED
:1013500070B504460D461646162001F04CF8284696
:10136000FFF788FB082101EB4411C9B241F00500E9
:10137000FFF75AFB3046FFF757FB162001F0EFF856
:1013800070BD70B504460D461646162001F033F8C0
:101390002846FFF76FFB082101EB4411C9B241F069
:1013A0000600FFF741FB3046FFF764FB162001F013
:1013B000D6F870BD70B505460E461446162001F0ED
:1013C0001AF83046FFF756FB082101EB4511C9B268
:1013D00041F00700FFF728FB14F8010BFFF724FB8F
:1013E00014F8010BFFF720FB14F8010BFFF71CFBAF
:1013F00014F8010BFFF718FB162001F0B0F870BDD0
:101400002DE9F04107460C461546162000F0F3FF83
:101410003846FFF72FFB0420FFF706FB002605E008
:1014200014F8010BFFF700FB701C86B2AE42F7DB2D
:10143000162001F094F8BDE8F0810000014A02494D
:1014400000F013B8171D00005400002002E008C887
:10145000121F08C1002AFAD170477047002001E02E
:1014600001C1121F002AFBD170472DE9F041164639
:101470000F460446002503E03946B047641C6D1C46
:1014800020780028F8D12846BDE8F08172B600BF68
:101490001348006800F0010000B100BE00BF00BFAB
:1014A00000BF00BF00BF00BFBFF34F8F00BF00BF32
:1014B00000BF0B48E438006800F4E06009490843C5
:1014C000001D0749E439086000BF00BF00BFBFF33B
:1014D0004F8F00BF00BF00BF00BF00BFFDE700008F
:1014E000F0ED00E00000FA053EB504460020009053
:1014F0000190029002946A46002144F20100FFF735
:10150000C5FF3EBD70B504460D46204600F0D5FB34
:1015100028B12946204600F0BFFB002070BD052001
:10152000FCE7034609B90E20704712B1501E104067
:1015300008B10920F8E71960501E988000209860D3
:10154000D86000BFF0E770B504460D46204600F0B5
:10155000B4FBA188884205D82946204600F0BBFB91
:10156000002070BD0420FCE72DE9F04104460F483F
:10157000077821460E48FFF7C5FF804697B1002047
:101580000A49087001220B490B4800F0F5FD054699
:1015900000BF2E4626B100BF3046FFF7A5FF00BFB3
:1015A00000BF00BF4046BDE8F081000052000020AF
:1015B000C012002051000020380000202DE9F04129
:1015C00088B004460E46174698462B4807601EB959
:1015D000072008B0BDE8F081B08882B227483168A2
:1015E000FFF79FFF054600BF284600B1F1E700BFA7
:1015F000B08982B22248B168FFF793FF054600BF69
:10160000284600B1E5E700BF20221E496846FEF7E4
:1016100013FE60690690207C08B1012000E00020E4
:101620008DF814008DF81C80607C08B10E2000E05D
:1016300000208DF81500E0680290A06803902068F3
:10164000019060680090104A6946104800F04EFD15
:10165000054600BF284600B1BBE700BF00200C498B
:1016600008702068401C28B101220A49074800F090
:1016700083FDAEE70020ACE74C000020C012002044
:10168000D0120020383A0000413600003800002017
:1016900052000020510000202DE9F0410546294666
:1016A0001448FFF750FF064606BB134C002720786E
:1016B0001249085C20B1201D01F09CFD074608E09E
:1016C00020780E49085C20B904F10C0001F046FCBA
:1016D000074600BF57B90A490648FFF713FF28B964
:1016E00001220749044800F069FD06463046BDE87E
:1016F000F0810000D0120020380000206C00002093
:101700005000002000B5024600F006F800BD00B50C
:10171000024600F00BF800BD72B603480068401C9A
:101720000149086070470000340000200448006848
:10173000401E034908600846006800B962B6704759
:101740003400002070B505460C462068401C28B1C6
:10175000206800F01EFF206800F00CFE6068401C4E
:1017600018B10021606800F0CDFD2868A169C0F8BB
:10177000241500BF617D227D286841EA0203C0F87C
:101780006C3500BFD4E90012286800F0E4FF207D2A
:10179000012814D1A068401C18B10021A06800F0F5
:1017A000B1FDE068401C28B1E06800F0F2FEE0689E
:1017B00000F0E0FDD4E90221286800F0B4FF70BD1C
:1017C00070B505460C462068401C28B1206800F022
:1017D000EDFE206800F0DAFD6068401C18B10021C1
:1017E000606800F09CFD2868A169C0F8241500BF5E
:1017F000617D227D286841EA0203C0F86C3500BF94
:10180000D4E90012286800F0D5FF207D012814D10A
:10181000A068401C18B10021A06800F080FDE068BD
:10182000401C28B1E06800F0C1FEE06800F0AEFDA9
:10183000D4E90221286800F0A9FF70BD7CB500241E
:101840000DE00848055D032600200090334602465F
:1018500001460190284600F0D3FC00BF641C042C14
:10186000EFD37CBD343A000010B5044604F001000B
:1018700008B100F011F804F0020008B1FFF7DEFF34
:1018800010BD000010B504460249085D012100F0BA
:10189000C1FE10BD303A00007CB500240CE00948C0
:1018A000055D002000900346012211460190284664
:1018B00000F0A6FC00BF641C042CF0D300F004F878
:1018C0007CBD0000303A000010B5002403E0204643
:1018D000FFF7D8FF641C042CF9D310BD4FF0FF3183
:1018E000054A42F82010082804DBFF23A0F1080174
:1018F00054325354704700005013002001460248F0
:1019000050F8210070470000501300202DE9F04FDF
:1019100003460C464FF0FF390AB1002000E00820D2
:1019200084460AB1082000E009208046614624E090
:10193000154850F82100401CF0B91D4608462746BE
:1019400016464FFA80FBDFF840A00AF1240A0AF895
:1019500005B0DFF834A04AF820704EB94FFA85FB85
:10196000A0F1080ADFF820E00EF1540E0EF80AB0DC
:1019700000BF4FFA81F902E0491C4145D8D300BFAE
:101980004846BDE8F08F0000501300200146014892
:10199000405670477413002005480068082805D198
:1019A0000348001D006808B9012070470020FCE7CB
:1019B0003001001005480068082805D10348001DC3
:1019C000006808B9012070470020FCE730010010D2
:1019D00005480068082805D10348001D006808B9BB
:1019E000012070470020FCE7300100100C4800681F
:1019F000082812D10A48001D006808B90120704764
:101A00000748001D0068012800D1F8E70448001DC0
:101A10000068022801D10120F1E70120EFE7000072
:101A2000300100100C480068082812D10A48001D37
:101A3000006808B9012070470748001D00680128A8
:101A400000D1F8E70448001D0068022801D10120F8
:101A5000F1E70120EFE70000300100100C480068BA
:101A6000082812D10A48001D006808B901207047F3
:101A70000748001D0068012800D1F8E70448001D50
:101A80000068022801D10120F1E70120EFE7000002
:101A90003001001005480068082805D10348001DE2
:101AA000006808B9012070470020FCE730010010F1
:101AB00010B506E020A0FFF7C1FC4FF4FA7000F06B
:101AC0009FFA21A0FEF77AFD044620A0FEF776FDDE
:101AD0000443002CEED0FEF7E5FB06E01EA0FFF766
:101AE000ADFC4FF4FA7000F08BFA17A0FEF766FD1C
:101AF0000028F3D0FEF7D6FB06E01BA0FFF79EFC04
:101B00004FF4FA7000F07CFA0FA0FEF757FD0028A2
:101B1000F3D0FEF7C7FB06E019A0FFF78FFC4FF4E8
:101B2000FA7000F06DFA08A0FEF748FD0028F3D027
:101B3000FEF7B8FB10BD000041542B43574D4F44F6
:101B4000453D330D0A0000004F4B00006E6F2063CF
:101B500068616E676500000041542B4349504D5544
:101B6000583D310D0A00000041542B434950534564
:101B7000525645523D312C353030300D0A000000B0
:101B800041542B43494653520D0A00002DE9F04FB2
:101B90008BB01822294905A8FEF74EFB00BF284844
:101BA00001904FF480700290264803904FF48070AB
:101BB00004900723244A01A905A8FFF7FFFC044667
:101BC00000BF00BF254625B100BF2846FFF78CFCAB
:101BD00000BF00BF0525012637464FF00008C1466B
:101BE000C246049504A800F03DFC834646EA47003F
:101BF00040EA880040EA092040EA0A410BF5E0602B
:101C0000049A40F8221000BF00BF0520049004A8E9
:101C100000F028FC05460121049A01FA02F0C5F8FB
:101C2000080500BF00BF4FF4FA7000F0E9F900F0BA
:101C30000DF8FFF73DFF0BB0BDE8F08F183A00003C
:101C4000AE100020AE110020E135000038B506E0EE
:101C50000EA0FFF7F3FB4FF4FA7000F0D1F90DA0DE
:101C6000FEF7ACFC0028F3D0FEF71CFB0F20009021
:101C7000684600F0F7FB04460121009A01FA02F0E1
:101C8000C4F80C0500BF00BF38BD000041540D0A68
:101C9000000000004F4B000070B504460D462A4678
:101CA0000021204600F00EF8A068401CA06070BD26
:101CB00001468A68C868801A704701468A68C86801
:101CC000801A704710B583680B44848823400468E9
:101CD000E35C137010BDC26883881A40036899548E
:101CE000C268521CC260704710B50446E07FFF28EE
:101CF00008D0A07F18B1E07F00F097FB02E0E07F02
:101D000000F061FC00206077207204F10800D4E943
:101D10000021904710BD70B504460D46E0B2FFF7B4
:101D2000BBFC204670BD00001E48006800F00700A4
:101D3000052836D001201C49086000BF1B480068F8
:101D40000028FBD01748006820F00700401D4FF026
:101D50001021C1F8040300201349086000BF134894
:101D600000680028FBD000BF00BF00BF00BF00BF5D
:101D7000BFF34F8F00BF00BF00BF0D48006800F4E5
:101D8000E0600C490843001D0949086000BF00BF1E
:101D900000BFBFF34F8F00BF00BF00BF00BF00BF39
:101DA000FDE770470413001004E5014000E4014022
:101DB0000CED00E00000FA05F8B505460E46132DBF
:101DC00015D10D200090684600F03CFB0446D4F885
:101DD0000475012000998840B843C4F80805012023
:101DE000009988403840C4F80C0500BF00BF022E9F
:101DF00002D1012001490870F8BD00003000002028
:101E00002DE9F04105460E464FF48E71286800F02A
:101E100083FC4FF4A271286800F07EFC1C492868FE
:101E200000F08AFC286800F0CCFC044637462046C7
:101E30003946002809DA4A074FEA126C154A00F0C1
:101E40000F031B1F02F803C003E04A07130E124AD8
:101E5000135400BF00BF286800F0B3FC04462046BE
:101E600000F01F02012191400C4A430942F823105F
:101E700000BF00BF00F01F02012191404209920003
:101E800002F1E022C2F8001100BF00BFBDE8F081FE
:101E90008000020018ED00E000E400E080E200E0D5
:101EA0002DE9F04105460E464FF48871286800F090
:101EB00066FC4FF49071286800F061FC4FF4927159
:101EC000286800F05CFC4FF4A271286800F057FC11
:101ED0001C49286800F063FC286800F076FC044682
:101EE000374620463946002809DA4A074FEA126C7D
:101EF000154A00F00F031B1F02F803C003E04A0756
:101F0000130E124A135400BF00BF286800F05DFC96
:101F10000446204600F01F02012191400C4A43096B
:101F200042F8231000BF00BF00F01F0201219140C2
:101F30004209920002F1E022C2F8001100BF00BF86
:101F4000BDE8F0811003020018ED00E000E400E0BD
:101F500080E200E070B505460C464FF48C712846CF
:101F600000F0B6FB38B14FF48C71284600F0B7FB97
:101F70002046FFF7B9FE70BD00BFFFF7D5FE012078
:101F8000FFF772FCFFF702FEFEF78CFDFEF724FB65
:101F9000FFF7B6F8FFF716F9FEF7D2FF01E001F000
:101FA0007BFAFCE730B502460B46D40802F0070284
:101FB000012090401D5D284030BD30B50B46C20861
:101FC00000F007009C5C012585402C439C5430BDEB
:101FD0002DE9F04104460CB9BDE8F08100BF4FF493
:101FE0007A7505B904E0054FAE013046B84700BF29
:101FF000601E041EF3D100BFEEE70000F1390000BF
:102000002DE9F04104460CB9BDE8F08100BF4FF462
:102010007A7505B904E0054FAE013046B84700BFF8
:10202000601E041EF3D100BFEEE70000113A00006D
:102030002DE9FF4705460C46164698462F781A4864
:1020400040F82760194840F827804FF00009184BE6
:102050000FCB8DE80F0020788DF8000060788DF8A8
:102060000100A0788DF80200E0788DF80300207957
:102070008DF8050060798DF80600A0680290207B3D
:102080008DF80C00607B8DF80D000EB1094800E062
:10209000002002463B466946281D00F00BFD8146A4
:1020A000484604B0BDE8F087E0120020F01200209E
:1020B000583A0000493300002DE9FF4704460D4619
:1020C00016461F46DDF830804FF000090095019656
:1020D0000297CDF80C8000226946201D00F0E2FD39
:1020E0008146484604B0BDE8F08700002DE9F04184
:1020F00088B004460F46154626781A4840F8265000
:102100001949386941F82600787F184988552022F6
:1021100039466846FEF790F804964FF0000820789C
:102120001249085C50B10DB1114800E00020024690
:102130006946201D00F02EFF80460EE020780B49F6
:10214000085C50B90DB10B4800E00020024669461A
:1021500004F10C0000F0E6FD8046404608B0BDE802
:10216000F08100005C000020640000206C00002072
:1021700099380000153700002DE9F04104460D465E
:102180001646002720780C49085C30B132462946B3
:10219000201D00F03FFF07460AE020780649085C52
:1021A00030B93246294604F10C0000F0FFFD074625
:1021B0003846BDE8F08100006C0000202DE9F041B8
:1021C00004460D461646002720780C49085C30B1BD
:1021D00032462946201D00F0B9FF07460AE0207864
:1021E0000649085C30B93246294604F10C0000F07B
:1021F0006FFE07463846BDE8F08100006C00002005
:102200002DE9FF470C4615461E46DDE90C78684669
:1022100000F048F9814644EA450040EA860040EA79
:10222000072040EA084109F5E060009A40F82210D2
:10223000BDE8FF872DE9FF470C4615461E46DDE940
:102240000C78684600F03EF9814644EA450040EAD1
:10225000860040EA072040EA084109F5E060009A5C
:1022600040F82210BDE8FF872DE9FF470C461546D0
:102270001E46DDE90C78684600F034F9814644EAF0
:10228000450040EA860040EA072040EA084109F597
:10229000E060009A40F82210BDE8FF872DE9FF4773
:1022A0000C4615461E46DDE90C78684600F02AF912
:1022B000814644EA450040EA860040EA072040EAB9
:1022C000084109F5E060009A40F82210BDE8FF8758
:1022D0002DE9FF470C4615461E46DDE90C78684699
:1022E00000F020F9814644EA450040EA860040EAD1
:1022F000072040EA084109F5E060009A40F8221002
:10230000BDE8FF877CB505460C46002000902346BB
:102310000246014601902846FFF78CFF7CBD7CB544
:1023200005460C46002000902346024601460190D7
:102330002846FFF799FF7CBD2DE9F84F044601259B
:102340002E464FF00008C14647460094684600F00C
:1023500099F8824645EA460040EA880040EA0920AA
:1023600040EA07410AF5E060009A40F8221000BFF9
:10237000BDE8F88F1CB504460020009003460122FA
:10238000114601902046FFF755FF1CBD1CB50446C1
:102390000020009003460122114601902046FFF7DD
:1023A00063FF1CBD1CB504460020009003460122BB
:1023B000114601902046FFF78BFF1CBD73B50D46FB
:1023C000684600F09FF8044604F5E060009950F874
:1023D000210020F4403104F5E060009A40F822101A
:1023E000009950F8210040EA054104F5E060009AA8
:1023F00040F822107CBD31B5684600F023F8044651
:102400000121009A01FA02F0C4F80C0500BF38BDA2
:1024100031B5684600F036F804460121009A01FA09
:1024200002F0C4F80C0500BF38BD31B5684600F0B5
:1024300079F804460121009A01FA02F0C4F80C056B
:1024400000BF38BD01460868202802D24FF0A040E6
:102450007047087800F01F0008600148F8E70000A6
:102460000003005001460868202802D24FF0A04027
:102470007047087800F01F0008600148F8E7000086
:102480000003005001460868202802D24FF0A04007
:102490007047087800F01F0008600148F8E7000066
:1024A0000003005001460868202802D24FF0A040E7
:1024B0007047087800F01F0008600148F8E7000046
:1024C0000003005001460868202802D24FF0A040C7
:1024D0007047087800F01F0008600148F8E7000026
:1024E0000003005001460868202802D24FF0A040A7
:1024F0007047087800F01F0008600148F8E7000006
:102500000003005001460868202802D24FF0A04086
:102510007047087800F01F0008600148F8E70000E5
:102520000003005001460868202802D24FF0A04066
:102530007047087800F01F0008600148F8E70000C5
:102540000003005031B56846FFF7DCFF044600BFCA
:10255000D4F810050099C84000F0010038BD31B52D
:102560006846FFF76FFF04460121009A01FA02F066
:10257000C4F8080500BF38BD31B56846FFF782FFD3
:1025800004460121009A01FA02F0C4F8080500BFD0
:1025900038BD31B56846FFF795FF04460121009A22
:1025A00001FA02F0C4F8080500BF38BD31B568462D
:1025B000FFF798FF04460121009A01FA02F0C4F8DF
:1025C000080500BF38BD31B56846FFF7ABFF0446CC
:1025D0000121009A01FA02F0C4F8080500BF38BDD5
:1025E00000BF202802D24FF0A04302E000F01F00FD
:1025F000074B1946D1F80425012383409343C1F8C2
:102600000835012383401340C1F80C3570470000A2
:1026100000030050F8B504460D466DB900946846B5
:10262000FFF740FF06460121009A01FA02F0C6F8C2
:102630000C0500BF00BF0DE000946846FFF732FFB5
:1026400006460121009A01FA02F0C6F8080500BF0B
:1026500000BF00BFF8BD00003CB50B46084D30CDB3
:10266000CDE90045014606E05DF82140D4F810555B
:102670001560121D491CC4188C42F5D83CBD0000E1
:10268000C83A000001460148084470470060004015
:1026900038B504462046FFF7F5FF002101602046CB
:1026A000FFF7F0FF0068009000BF38BD10B504468A
:1026B0002046FFF7E7FF0068012800D110BD002089
:1026C000FCE7000001490860704700000463004017
:1026D0000246505808B1012070470020FCE708B5B9
:1026E000002242504258009200BF08BDC0F80813B3
:1026F0007047C0F8041370470122425070470146EA
:10270000D1F88004C1F8800470470246505808B1DF
:10271000012070470020FCE708B5002242504258D3
:10272000009200BF08BDC0F808154FF4A2631A500C
:102730007047C0F808137047C0F80413704702468A
:10274000D2F80403084008B1012070470020FCE7DC
:1027500001224250704740F214531A5040F20C5379
:10276000195070470146D1F88004C1F880047047C1
:102770000246505808B1012070470020FCE708B518
:10278000002242504258009200BF08BDC0F8081510
:102790004FF4A2631A507047C0F808137047C0F88E
:1027A00004137047014640F23C50405870470122E4
:1027B0004250704740F20C53195040F214531A50D3
:1027C00070470146080B40B270470146080B40B203
:1027D00070470146080B40B2704700002DE9F047F2
:1027E00006460D46304600F02DFDE0B13046FFF7BD
:1027F000CDF8083822490F5CBC11032C08D13046B3
:10280000FFF7A0FE08B1032000E00220804605E0AB
:10281000012C01D1022000E00320804641463046D1
:10282000FFF7CCFD2AE0304600F018FD30B330460B
:10283000FFF7ACF80446A00000F5807087B2204690
:10284000104951F8201041F001020E4941F82020B2
:1028500000BF3846FFF71CFF7DB13046FFF796F802
:102860008146FFF74BF88046B8F1000F04D00121F4
:1028700001FA04F0FFF726FF00BF00BFBDE8F087B4
:10288000A4130020106500402DE9FC4706460D46C4
:1028900017464FF00008304600F0C6FC10B14FF06C
:1028A000080864E0A878C0F3400239463046FFF7D4
:1028B0002DF80446601C002856D0A878C0F380008C
:1028C00030BBA87800F0010090B1019601A8FFF795
:1028D00019FE814609F5E060019950F8210020F0C9
:1028E000020A09F5E060019940F821A000BF0CE060
:1028F00095F80190002000904B4602460146019059
:102900003046FFF7CBFC00BF00BF304600F082FC32
:10291000A878C0F34000D0B12878164951F82410A7
:10292000154A1140134A42F82410114651F8241058
:102930004FF47C5202EA06224FF4403303EA00438C
:102940001A4311430B4A42F8241000BF0EE0A4F1D1
:1029500008000A49085C297840EA811042B2A4F1D3
:10296000080006490A5401E04FF0040800BF404641
:10297000BDE8FC8710650040FFC0FCFFA4130020E9
:102980002DE9F0412B4890F85B0018B10825284646
:10299000BDE8F081002404E0204600F06FFC601CDC
:1029A000C4B2302CF8DB002404E02046FEF796FF8A
:1029B000601CC4B2092CF8DB1E48553000210160B0
:1029C00081800622134610461946002809DA4E0770
:1029D0004FEA166C184E00F00F073F1F06F807C0AD
:1029E00003E04E07370E154E375400BF00BF0620D8
:1029F00000BF01218140124A430942F8231000BF61
:102A000000BF012181404209920002F1E022C2F898
:102A1000001100BF00BF4FF4BE70FFF739FE4FF04A
:102A20000040FFF74FFE0120024981F85B000025BE
:102A30002846ADE75013002018ED00E000E400E068
:102A400080E200E0014601F06040B0F1005F01D19A
:102A5000012070470020FCE7014601F06040B0F122
:102A6000005F01D1012070470020FCE72DE9F04113
:102A700007460E46384600F007FC0446BCB14FF04E
:102A800000080020FEF73EFE207910B14FF001084B
:102A900002E02660012020710020FEF738FEB8F128
:102AA000000F03D011252846BDE8F08100BF0025A6
:102AB0002846F9E72DE9FF4F83B080460C4698F889
:102AC000040000EBC000724901EB8006307F28B1A2
:102AD0004FF0080B584607B0BDE8F08FD8F800500B
:102AE00098F804206B4B53F82210D8F80000FFF739
:102AF000BDFF18B14FF0110B5846ECE70598306058
:102B000006987060207B012803DC2078FFF78DFC9D
:102B100002E02078FFF757FD002000900190207818
:102B200000231A460121FFF7D3FB6078FF2808D065
:102B300094F801A05046FFF778FC5046FFF732FCAE
:102B400001E04FF0FF3AA078FF280DD094F80290F2
:102B50000027002000903B4602460146019048466F
:102B6000FFF7B6FB00BF01E04FF0FF39A07886F811
:102B70002000E078F077E078FF280DD0207918B1B8
:102B8000E078FFF752FC02E0E078FFF71CFDE07808
:102B9000FFF708FC2079B0772078C5F80805C5F85C
:102BA0000CA5C5F8109500BFA068C5F8240500BFA6
:102BB000217B627B0AB1012300E00023184631B17A
:102BC000012906D0022907D0032908D000BF00BF81
:102BD00008E040F0020005E040F0040002E040F0B0
:102BE000060000BF00BFC5F8540500BFA079C5F8B6
:102BF000C00500BF306818B140212846FFF779FDB5
:102C000000BF0720C5F8000500BF3068B8B3D8F88A
:102C10000000FFF7DEFD0746617902913846029910
:102C2000002809DA4A074FEA126C1B4A00F00F032A
:102C30001B1F02F803C003E04A07130E174A135480
:102C400000BF00BFD8F80000FFF7C3FD07463846B5
:102C500000F01F0201219140114A430942F823105C
:102C600000BF00BF00F01F02012191404209920005
:102C700002F1E022C2F8001100BF00BF00BF002037
:102C80007077012030774FF0000B584623E70000A3
:102C9000AC1300201C3B000018ED00E000E400E055
:102CA00080E200E02DE9F04105460E4617462879FE
:102CB00000EBC000154901EB80044FF00008607F75
:102CC00020B14FF011084046BDE8F081206820B1E6
:102CD00007F0140008B90120607796E80E10C4E9E7
:102CE000053CC4E90312E07FFF2808D0A07F18B19B
:102CF000E07FFFF768FC02E0E07FFFF796FB3B46D2
:102D000032462146286800F03FFBDDE7AC13002087
:102D100010B50249024800F019FD10BD0013002053
:102D2000002000402DE9F04105460E46174628795F
:102D300000EB400101EBC0001A4901EB80044FF0A9
:102D4000000894F82A0020B14FF008084046BDE87A
:102D5000F0812A79144B53F822102868FFF786FE79
:102D600018B14FF011084046F1E731462846FEF70A
:102D7000E9FC676030692060606818B1317F2846DF
:102D8000FFF73EF828680421C0F8001500BF0020B6
:102D9000A061E06184F829006061012084F82A00C4
:102DA0004046D4E700130020783A00002DE9F84FA0
:102DB000054689469246287900EB400101EBC000A8
:102DC000424901EB800400200090606820B14FF47C
:102DD00001712868FFF7ADFCA06970B1E06950B1DE
:102DE000606820B14FF401712868FFF7A5FC112637
:102DF0003046BDE8F88F01200090009838B9C4F83B
:102E000018A0C4F80C9000206062E06103E0C4F8F0
:102E10001090C4F81CA094F8290020B9009810B9AB
:102E2000284600F07AFA6068002846D14FF4A27173
:102E30002868FFF771FC00BF00BF4FF4927128684B
:102E4000FFF763FC80464FF484712868FFF75DFC50
:102E500083464FF4A2712868FFF757FC0746BBF181
:102E6000000F03D117B9B8F1000FE6D0B8F1000F89
:102E700000D107B107E02146286800F011FA616A25
:102E8000A0698842D8D800BF0020A061B8F1000F27
:102E900002D003263046ACE717B10F263046A8E72C
:102EA00094F8290020B100212868FFF751FC03E0C5
:102EB00004212868FFF74CFC04E04FF401712868F6
:102EC000FFF73AFC0026304693E70000001300208D
:102ED0002DE9F04104460F469046207900EB400171
:102EE00001EBC0001C4901EB8005204600F036F8DC
:102EF00018B111263046BDE8F081C5F81480AF60E6
:102F00000020286285F8280000264FF48E71206882
:102F1000FFF702FC08212068FFF71AFC2946206809
:102F200000F029FB6868A0B92946206800F008FB7A
:102F300008B90F260BE000BF4FF48E712068FFF731
:102F4000E4FB0028F8D00C212068FFF701FC0020EA
:102F500068613046CFE70000001300200146087981
:102F600000EB400202EBC000044A02EB8000406923
:102F700008B1012070470020FCE70000001300208A
:102F800010B50249024800F0A3FC10BD2C1300202C
:102F9000002000402DE9F04105460E4617462879ED
:102FA00000EBC000194901EB80044FF0000894F8D1
:102FB000200020B14FF008084046BDE8F0812A7992
:102FC000134B53F822102868FFF750FD18B14FF04B
:102FD00011084046F1E731462846FEF7F1FB6760ED
:102FE00030692060606818B1317F2846FEF758FFCD
:102FF00028680821C0F8001500BF0020A061E0612A
:103000006061012084F820004046D6E72C130020A0
:10301000A83A00002DE9F84F04460E4617462079DD
:1030200000EBC000484901EB80053046FFF70AFD80
:1030300020B94FF010084046BDE8F88F4FF0000A65
:10304000686820B14FF404712068FFF7A5FBA869F8
:1030500070B1E86950B1686820B14FF4047120681C
:10306000FFF79DFB4FF011084046E5E74FF0010ADE
:10307000BAF1000F04D1AF61EE600020E86101E019
:103080002E61EF614FF000084FF488712068FFF760
:1030900076FB4FF4A2712068FFF771FB2068C0F83F
:1030A00034654FF4A7610F5000BFBAF1000F04D18F
:1030B00000212068FFF77BFB08E020212068D0F882
:1030C00000220A43C0F8002200BF00BF207900EBB5
:1030D000C0001D4901EB8000406868BB00BF4FF491
:1030E00088712068FFF744FB00904FF4A2712068BC
:1030F000FFF73EFB83464FF492712068FFF738FBE1
:103100008146009828B9BBF1000F02D1B9F1000F38
:10311000E5D00020217901EBC1010B4A02EB8101CE
:103120008861B9F1000F01D04FF00308BBF1000F27
:1031300001D04FF00F0804E04FF404712068FFF74E
:103140002EFB404678E700002C1300202DE9F047C5
:10315000044688469146207900EBC000244901EBE3
:1031600080054046FFF76EFC18B910263046BDE8D2
:10317000F087204600F03EF810B111263046F6E701
:10318000C5F81490C5F8088000264FF490712068A7
:10319000FFF7F5FA4FF4AC712068FFF7F0FA2068FA
:1031A0006A69A968C0F844154FF4A9631A5000BFB2
:1031B00008212068FFF7FBFA6868B0B900BF4FF438
:1031C00090712068FFF7D4FA82464FF4AC71206802
:1031D000FFF7CEFA0746BAF1000F01D1002FEED06B
:1031E00007B10F260020686100BF3046BFE700002E
:1031F0002C1300200146087900EBC000044A02EBC2
:103200008000406908B1012070470020FCE7000001
:103210002C13002010B5044602492046FEF7CDFECF
:1032200010BD0000A51300200146054840560122AC
:1032300002EBE07008B1012070470020FCE70000BD
:1032400074130020014604484056082801DB012081
:1032500070470020FCE70000741300200146064878
:103260004056002805DB04484056082801DA0120B2
:1032700070470020FCE7000074130020FF22014982
:103280000A5470477413002001460348814201D15B
:10329000024870470020FCE700200040700000203A
:1032A00070B505460C46A06940B94FF484712846B4
:1032B000FFF732FA00BFD5F8180570BD4FF48471DE
:1032C0002846FFF729FA00BFD5F81805C0B2626A90
:1032D000E1688854606A401C606200BFEDE77FB51A
:1032E00004460D46164601208DF800000295019611
:1032F0006846D4E9001290477FBD7FB504460D466D
:10330000164601208DF80000E9B28DF808100196EC
:103310006846D4E9001290477FBD10B504464FF4CB
:1033200092712068FFF7F8F94FF484712068FFF775
:10333000F3F900212068FFF70BFA10BD0122014BC1
:103340001A7070470000002070B586B004460D4624
:103350002E4620788DF8040060680290217A8DF85E
:103360000C10E1680491217C8DF81410044850F889
:103370002610044850F8262001A8904706B070BDDA
:10338000F0120020E01200202DE9F04704460E461E
:1033900015461F46286818B12868FFF75DFB28B15D
:1033A000A86850B1A868FFF757FB30B900207077C4
:1033B0004FF010084046BDE8F087D5E90001C4F899
:1033C00044054FF4A962115100BFD5E90201C4F8C8
:1033D00034054FF4A762115100BF4FF48C712046A1
:1033E000FFF77DF92046394601F0010232B100BFF6
:1033F00001234FF4AA62135000BF06E000BF002370
:103400004FF4AA62135000BF00BF01F0020232B1B4
:1034100000BF01234FF4A862135000BF06E000BFB5
:1034200000234FF4A862135000BF00BF00BF07F095
:10343000080018B910212046FFF75EF93068A0B9DE
:1034400000BF4FF48C712046FFF742F90028F8D0F6
:10345000F07FFF281BD0B07F18B1F07FFEF7E5FFAB
:1034600015E0F07FFFF7AFF811E0A146012020EA58
:10347000970ABAF1000F04D140214846FFF736F908
:1034800003E040214846FFF734F900BF00BF4FF08A
:10349000000840468FE7000070B5FDF7F9FDFDF725
:1034A000FBFE22A0FDF78AF818B30D20FFF798F86D
:1034B00000241AE01E48005D4C2815D11C49601CF0
:1034C000085C452810D1A01C085C44280CD10E468D
:1034D000E51C755DA5F13003A51D725D651D715D6F
:1034E000251D705DFDF7F4FD641C322CE2DBFCF75A
:1034F000D9FE1048007808B1FDF76EFE0E4800783E
:1035000000F0010080B10C48007820F001000A4969
:1035100008700A490020FDF7ABF808480078322807
:1035200002D10E20FFF75CF870BD00004C4544004E
:103530007C100020300000202F0000207C000020A4
:1035400070B505460C4610E004E094F8280008B178
:10355000002070BD4FF48E712846FFF7D6F8002882
:10356000F3D02146284600F006F8206A61698842B7
:10357000EAD30120EDE770B505460C464FF48E7195
:103580002846FFF7C9F8216AA068465C206A401CFB
:1035900020623046C5F81C0500BF70BD7FB50446EB
:1035A0000D4600208DF800000295A06801900020D3
:1035B00060616846D4E9001290477FBD7FB504463C
:1035C0000D4600208DF80000E9B28DF80810A068C3
:1035D0000190002060616846D4E9001290477FBDE9
:1035E00038B504462078022804D100BF6068FDF792
:1035F0007BFF1FE02078012804D100BF6068FDF741
:1036000073FF17E02078A0B96846FDF7ADFF9DF87D
:1036100000000949094A1278885408480078401C7B
:103620000649087008460078322803DD002008703B
:1036300000E000BF38BD00007C10002031000020F9
:103640007CB504460E46207800283FD0012802D0E1
:1036500002284ED12BE0606801782748FDF773FF00
:10366000054645B101208DF80000019568462349C3
:10367000096888470AE02048FEF71AFB30B10020AD
:103680008DF8000068461D49096888471A48FEF70A
:103690000FFB19498988884205D801221849194821
:1036A000FEF76AFD02E001201749087022E00220BF
:1036B0008DF80000E0680190012211491148FEF7E1
:1036C0005BFD68460D490968884713E00F491048BB
:1036D000FDF718FF28B901220C490A48FEF76EFDD4
:1036E00006E003208DF80000684604490968884711
:1036F00000E000BF00BF7CBDC01200204C000020D5
:10370000510000203800002052000020500000200E
:10371000D01200207FB504460D462E4620788DF845
:10372000000060680190217A8DF80810E16803912B
:10373000044850F82610044850F826206846904760
:103740007FBD0000640000205C0000202DE9FF41E7
:1037500005460C464FF400712846FEF7F0FF48B3CB
:103760004FF492712846FEF7D0FF18B34FF49271D0
:103770002846FEF7D1FF4FF401712846FEF7D9FF26
:1037800094F8290018B904212846FEF7E1FF022029
:103790008DF800002846FEF7B2FF0390A169029160
:1037A000E06801900020A061E0616846D4E9001261
:1037B000904737E004212846FEF7C1FF002831D0AA
:1037C0004FF484712846FEF7A0FF58B321462846DF
:1037D000FFF766FD616AA069884223D1E06970B194
:1037E000E668676AE069A0612069E0600020E06146
:1037F0006062324639462046FFF771FD12E094F8C8
:10380000290018B904212846FEF7A2FF4FF40171E0
:103810002846FEF78EFF0020A061E268616A20461C
:10382000FFF75DFD4FF48E712846FEF76EFFB0B1D5
:10383000206A6169884207D294F8280020B921469D
:103840002846FFF798FE0AE04FF48E712846FEF7EF
:1038500063FF606918B120466169FFF79FFE4FF46E
:10386000A2712846FEF751FFA0B14FF4A27128467D
:10387000FEF752FF94F8290018B100212846FEF700
:1038800067FFA06930B10020A061E268616A20464C
:10389000FFF725FDBDE8FF817FB504460D462E46A6
:1038A00020788DF8000060680190217A8DF808106A
:1038B000E1680391044850F82610044850F8262087
:1038C000684690477FBD0000640000205C00002037
:1038D0002DE9FF4105460C464FF492712846FEF74C
:1038E00047FFD8B14FF492712846FEF748FF0220F7
:1038F0008DF800002846FEF735FF03902846FEF7B6
:1039000051FFC1B28DF80810E06801900020A0615D
:10391000E0616846D4E9001290472FE04FF48871C7
:103920002846FEF725FF48B34FF488712846FEF776
:1039300026FF2846FEF736FF0646A069B0421CD196
:10394000E06998B1E7682020D5F800128143C5F8F6
:10395000001200BFE069A0612069E0600020E06122
:103960003A4631462046FFF7C8FC06E00020A06139
:1039700031462046E268FFF7C0FC00BF4FF4A27159
:103980002846FEF7F5FE88B14FF4A2712846FEF7EF
:10399000F6FEA06950B10020A0612846FEF702FFA4
:1039A000064631462046E268FFF7A7FC4FF49071C7
:1039B0002846FEF7DDFE78B14FF490712846FEF7F9
:1039C000DEFE606940B100BF40F24C5040590646EF
:1039D00031462046FFF7F2FDBDE8FF810000000000
:1039E0000000000000300040000000000100000066
:1039F0000338FDD870470000FFFFFFFF06FF0000FF
:103A00000000008000000000020002000000000032
:103A10000338FDD8704700000800000006000000D1
:103A200005000000070000000000000000E0D701D2
:103A30000D0E0F100B0C1819FFFFFFFFFFFFFFFF0C
:103A4000FFFFFFFFFFFFFFFF00000000000000007E
:103A50000000D60106010000FFFFFFFF0006FF0087
:103A600000000040000000006E7266785F756172B1
:103A7000745F696E69740000112D00006E726678C3
:103A80005F756172745F7478006E7266785F7561DD
:103A900072745F72780000006E7266785F75617292
:103AA00074655F696E697400812F00006E726678BC
:103AB0005F75617274655F7478006E7266785F75A9
:103AC000617274655F72780000000050000300505E
:103AD0006E7266785F6770696F74655F696E69742E
:103AE000006E7266785F6770696F74655F6F75747A
:103AF0005F696E6974006E7266785F6770696F7473
:103B0000655F696E5F696E69740000006E72667849
:103B10005F7370696D5F696E69740000910A0000DF
:103B20007370696D5F78666572006E7266785F7338
:103B300070696D5F78666572000000005C3B000094
:103B4000000000207C0000004C140000D83B000066
:103B50007C000020543300005C14000000000000D2
:103B60000000000000000000000000000000000055
:103B70000000000000000000000000000000000045
:103B80000000000000000000000300000000000032
:103B900000000000000000000020004000000000C5
:103BA00000200040000000000000000000000000B5
:103BB0000000000000000000000000000000000005
:103BC00000000000000000000000000000000000F5
:083BD000000000000090D0038A
:0400000500000201F4
:00000001FF
